:020000040800F2
:1000000018040020490100080F0300080703000836
:100010000B030008910100086D08000800000000B3
:100020000000000000000000000000008D04000837
:1000300095010008000000009503000879050008FC
:100040006301000863010008630100086301000800
:1000500063010008630100089901000863010008BA
:1000600063010008630100086301000863010008E0
:1000700063010008630100086301000863010008D0
:1000800063010008630100086301000863010008C0
:1000900063010008630100086301000863010008B0
:1000A00063010008630100086301000863010008A0
:1000B0006301000863010008630100086301000890
:1000C0006301000863010008630100086301000880
:1000D00063010008DD0500086301000863010008F2
:1000E0006301000863010008630100086301000860
:1000F0006301000863010008630100086301000850
:10010000630100086301000863010008630100083F
:10011000630100086301000863010008630100082F
:10012000630100086301000863010008630100081F
:10013000DFF810D000F01AF8004800472D09000839
:10014000AFF30080180400200648804706480047A7
:10015000FEE7FEE7FEE7FEE7FEE7FEE7FEE7FEE777
:10016000FEE7FEE77D05000831010008064C074D5B
:1001700006E0E06840F0010394E807009847103477
:10018000AC42F6D3FFF7D8FF94090008B409000881
:1001900000BFFEE77047000010B5012000F014F822
:1001A00040B10548006880F0200003490860012044
:1001B00000F004F810BD00000C0C0140014908607B
:1001C0007047000014040140014600200022074B44
:1001D0001B6803EA0102054B14331B680B4013B183
:1001E0000AB1012000E00020704700000004014037
:1001F0002DE9F041024600250026002000230024BE
:10020000002791F803C00CF00F0591F803C00CF023
:10021000100CBCF1000F03D091F802C04CEA0505A8
:1002200091F800C0BCF1000F31D0146800202BE021
:100230004FF0010C0CFA00F3B1F800C00CEA030611
:100240009E4220D183004FF00F0C0CFA03F7BC4301
:1002500005FA03FC4CEA040491F803C0BCF1280F32
:1002600006D14FF0010C0CFA00FCC2F814C00AE0F1
:1002700091F803C0BCF1480F05D14FF0010C0CFA06
:1002800000FCC2F810C0401C0828D1D31460B1F89B
:1002900000C0BCF1FF0F34DD546800202EE000F1F7
:1002A000080C4FF0010808FA0CF3B1F800C00CEA92
:1002B00003069E4221D183004FF00F0C0CFA03F786
:1002C000BC4305FA03FC4CEA040491F803C0BCF1FA
:1002D000280F05D100F1080C08FA0CF8C2F81480B8
:1002E00091F803C0BCF1480F07D100F1080C4FF0A2
:1002F000010808FA0CF8C2F81080401C0828CED378
:100300005460BDE8F08100BFFEE700BFFEE7704724
:1003100070B5002100230F22C47804B3154C246863
:1003200004F4E064C4F5E064210AC1F10403CA40A6
:10033000447804FA03F184781440214309010E4CF7
:100340000678A155047804F01F050124AC40057817
:100350006D11AD0005F1E025C5F8004109E0047814
:1003600004F01F050124AC40044D0678761145F8D1
:10037000264070BD0CED00E000E400E080E100E00C
:1003800002490143024A1160704700000000FA056B
:100390000CED00E07047000029B1064A9269024363
:1003A000044B9A6104E0034A92698243014B9A61CB
:1003B000704700000010024030B5002100220024E8
:1003C00000232D4D6D6805F00C0121B1042905D0E5
:1003D000082923D105E0294D056022E0274D05605D
:1003E0001FE0254D6D6805F47012234D6D6805F40E
:1003F0008034022505EB92421CB9214D554305601E
:100400000BE01D4D6D6805F400351DB11C4D5543C5
:10041000056002E0194D5543056002E0174D056087
:1004200000BF00BF144D6D6805F0F0010909154DBE
:100430006B5C0568DD4045600F4D6D6805F4E0615B
:10044000090A104D6B5C4568DD4085600A4D6D689A
:1004500005F46051C90A0B4D6B5C4568DD40C56011
:10046000054D6D6805F44041890B074D6B5CC5680F
:10047000B5FBF3F5056130BD0010024000127A00B3
:1004800000093D000000002010000020704710B55A
:1004900000F002F810BD00000CB5002001900090A3
:1004A0003348006840F480303149086000BF30486C
:1004B000006800F4003000900198401C0190009802
:1004C00018B90198B0F5A06FF1D12948006800F47F
:1004D000003010B10120009001E000200090009851
:1004E000012843D12348006840F0100021490860EA
:1004F0000846006820F0030008600846006840F0E5
:10050000020008601A484068194948600846406877
:1005100048600846406840F480604860084640688B
:1005200020F47C1048600846406840F4E8104860B9
:100530000846006840F08070086000BF0C48006802
:1005400000F000700028F9D00948406820F003004E
:10055000074948600846406840F00200486000BF14
:100560000348406800F00C000828F9D10CBD0000D9
:1005700000100240002002407047000010B51348F0
:10058000006840F0010011490860084640681049C1
:1005900008400E494860084600680E4908400B496B
:1005A00008600846006820F480200860084640681B
:1005B00020F4FE0048604FF41F008860FFF767FFDB
:1005C0004FF000600449086010BD000000100240B8
:1005D0000000FFF8FFFFF6FE08ED00E010B540F266
:1005E0002551064800F06BF838B1044800F035F9A1
:1005F000C4B22146014800F035F910BD0038014071
:1006000021B1828942F40052828104E082894DF650
:10061000FF731A408281704700B585B00121042024
:10062000FFF7BAFE01218803FFF7B6FE4FF4007012
:10063000ADF8100018208DF8130003208DF812007B
:1006400004A91648FFF7D4FD4FF48060ADF8100000
:1006500004208DF8130004A91048FFF7C9FD4FF4DA
:10066000E13000900020ADF80400ADF80600ADF8D0
:100670000800ADF80C000C20ADF80A0069460848E7
:1006800000F06CF8012240F22551054800F041F8D5
:1006900001210348FFF7B4FF05B000BD0008014089
:1006A0000038014002460020B1F5007F00D100BFB4
:1006B00013880B400BB1012000E00020704770B59B
:1006C0000246002400230025002040F66A16B142AD
:1006D00000D100BFC1F3421501F01F03012606FA45
:1006E00003F3012D02D19689334006E0022D02D199
:1006F000168A334001E0968A33400C12012606FA2E
:1007000004F41688344013B10CB1012000E000203D
:1007100070BDF0B50346002400260025002040F6F9
:100720006A17B94200D100BF1846C1F3421401F064
:100730001F06012707FA06F5012C01D10C3004E051
:10074000022C01D1103000E014301AB107682F4399
:10075000076002E00768AF430760F0BD2DE9F0478E
:1007600086B005460E460024A24600BFA1460027DB
:10077000B08900B100BF2F462C8A4CF6FF700440B0
:10078000F08804432C82AC894EF6F3100440B08804
:1007900031890843718908430443AC81AC8A4FF620
:1007A000FF400440B0890443AC8201A8FFF704FE77
:1007B0001F48874202D1DDF810A001E0DDF80CA04F
:1007C000A88900F4004040B10AEBCA0000EB0A100F
:1007D00031684900B0FBF1F807E00AEBCA0000EB12
:1007E0000A1031688900B0FBF1F86420B8FBF0F022
:1007F00004012009642101FB1089A88900F400404C
:1008000040B1322000EBC900B0FBF1F000F007006E
:10081000044308E0322000EB09106421B0FBF1F042
:1008200000F00F0004432C8106B0BDE8F087000003
:100830000038014008B54FF4A060FFF7A1FD252066
:100840008DF8000001208DF801008DF802008DF870
:1008500003006846FFF75CFD08BD01468888C0F3C9
:1008600008007047C1F308028280704700BFFEE7AE
:1008700070B504460D4629462046FFF7F3FF00BF3A
:1008800080212046FFF70EFF0028F9D070BD70B51B
:1008900006460C46002500BF615D3046FFF7E8FFC5
:1008A0006D1C605D0028F7D100BF40213046FFF786
:1008B000F9FE0028F9D070BD014A024900F013B8D2
:1008C000090900081400002002E008C8121F08C12E
:1008D000002AFAD170477047002001E001C1121FC1
:1008E000002AFBD170472DE9F04116460F46044619
:1008F000002503E03946B047641C6D1C20780028B1
:10090000F8D12846BDE8F08170B504460D46E1B245
:100910000548FFF7A7FF00BF80210348FFF7C2FE8D
:100920000028F9D0204670BD00380140FFF782FF53
:10093000FFF772FE04A10C48FFF7A9FF0BA0FFF719
:10094000BBFF00BFFEE70000D5E2CAC7D2BBB8F6C6
:10095000B4AEBFDAD6D0B6CFBDD3CAD5BBD8CFD40C
:10096000CAB5D1E90A00000000380140B0D7CDE097
:100970003A20D5E2CAC7D2BBB8F6B4AEBFDABDD30F
:10098000CAD57072696E7466BAAFCAFDCAB5D1E9CC
:100990000A000000B4090008000000201800000050
:1009A000C8080008CC090008180000200004000056
:1009B000D80800080000000001020304010203043B
:0C09C000060708090204060800000000F9
:0400000508000131BD
:00000001FF
