:020000040800F2
:100000008817002049010008B903000837030008D9
:10001000B5030008910100084D050008000000002C
:10002000000000000000000000000000FD030008C8
:100030000502000800000000BB030008E9040008F6
:100040006301000863010008630100086301000800
:1000500063010008630100086301000863010008F0
:1000600063010008630100086301000863010008E0
:1000700063010008630100086301000863010008D0
:1000800063010008630100086301000863010008C0
:1000900063010008630100086301000863010008B0
:1000A00063010008630100086301000863010008A0
:1000B0006301000863010008630100086301000890
:1000C0006301000863010008630100086301000880
:1000D0006301000863010008630100086301000870
:1000E0006301000863010008630100086301000860
:1000F0006301000863010008630100086301000850
:10010000630100086301000863010008630100083F
:10011000630100086301000863010008630100082F
:10012000630100086301000863010008630100081F
:10013000DFF810D000F01AF800480047D105000899
:10014000AFF3008088170020064880470648004724
:10015000FEE7FEE7FEE7FEE7FEE7FEE7FEE7FEE777
:10016000FEE7FEE7ED04000831010008064C074DEC
:1001700006E0E06840F0010394E807009847103477
:10018000AC42F6D3FFF7D8FF28060008380600086F
:1001900000BFFEE700F0805111B10349086001E0A3
:1001A0000249486070470000040402400000024019
:1001B00021B1026842F00102026004E002684FF6D9
:1001C000FE731A400260704710B50022026847F6BD
:1001D000F0739A430C6A8B6823430C6923434C6980
:1001E00023438C692343CC6923434C6A23438C6AA1
:1001F00023431A430260CB6843600B6883604B68FB
:10020000C36010BD704701B502E00098401E009029
:1002100000980028F9D108BD2DE9F04102460025DB
:100220000026002000230024002791F803C00CF0D2
:100230000F0591F803C00CF0100CBCF1000F03D0B7
:1002400091F802C04CEA050591F800C0BCF1000F1E
:1002500031D0146800202BE04FF0010C0CFA00F3B1
:10026000B1F800C00CEA03069E4220D183004FF093
:100270000F0C0CFA03F7BC4305FA03FC4CEA040428
:1002800091F803C0BCF1280F06D14FF0010C0CFA15
:1002900000FCC2F814C00AE091F803C0BCF1480F9A
:1002A00005D14FF0010C0CFA00FCC2F810C0401C44
:1002B0000828D1D31460B1F800C0BCF1FF0F34DDC1
:1002C000546800202EE000F1080C4FF0010808FAF5
:1002D0000CF3B1F800C00CEA03069E4221D1830062
:1002E0004FF00F0C0CFA03F7BC4305FA03FC4CEA81
:1002F000040491F803C0BCF1280F05D100F1080CEB
:1003000008FA0CF8C2F8148091F803C0BCF1480F49
:1003100007D100F1080C4FF0010808FA0CF8C2F8F8
:100320001080401C0828CED35460BDE8F0814161A4
:1003300070470161704700BFFEE7000008B501216A
:10034000082000F04BF82020ADF8000010208DF8B8
:10035000030003208DF8020069461548FFF75CFF93
:100360000120ADF8000010208DF8030003208DF867
:10037000020069460E48FFF74FFF0220ADF800006B
:1003800010208DF8030003208DF80200694608480C
:10039000FFF742FF20210648FFF7CBFF0121044869
:1003A000FFF7C7FF02210248FFF7C3FF08BD0000A7
:1003B000000C014000BFFEE77047704729B1064AB4
:1003C00052690243044B5A6104E0034A5269824372
:1003D000014B5A61704700000010024029B1064AE3
:1003E00092690243044B9A6104E0034A9269824392
:1003F000014B9A617047000000100240704710B531
:1004000000F002F810BD00000CB500200190009033
:100410003348006840F480303149086000BF3048FC
:10042000006800F4003000900198401C0190009892
:1004300018B90198B0F5A06FF1D12948006800F40F
:10044000003010B10120009001E0002000900098E1
:10045000012843D12348006840F01000214908607A
:100460000846006820F0030008600846006840F075
:10047000020008601A484068194948600846406808
:1004800048600846406840F480604860084640681C
:1004900020F47C1048600846406840F4E81048604A
:1004A0000846006840F08070086000BF0C48006893
:1004B00000F000700028F9D00948406820F00300DF
:1004C000074948600846406840F00200486000BFA5
:1004D0000348406800F00C000828F9D10CBD00006A
:1004E00000100240002002407047000010B5134881
:1004F000006840F001001149086008464068104952
:1005000008400E494860084600680E4908400B49FB
:1005100008600846006820F48020086008464068AB
:1005200020F4FE0048604FF41F008860FFF767FF6B
:100530004FF000600449086010BD00000010024048
:100540000000FFF8FFFFF6FE08ED00E000BFFEE749
:1005500000B58BB001210846FFF730FF114800902D
:10056000114801901020029041F288300390002041
:1005700004900690802005900020079008904FF48A
:100580000050099000200A9069460848FFF71CFEB9
:100590004FF40050FFF7FEFD01210448FFF708FE6D
:1005A0000BB000BD043801400000002044000240B0
:1005B00002E008C8121F08C1002AFAD1704770472C
:1005C000002001E001C1121F002AFBD1704700008A
:1005D000FFF7B4FEFFF7BCFF20E020211048FFF733
:1005E000A6FE1048FFF70FFE20210D48FFF7A1FEE1
:1005F00001210B48FFF79BFE0A48FFF704FE01218B
:100600000748FFF796FE02210548FFF790FE0548D0
:10061000FFF7F9FD02210248FFF78BFEDDE700003E
:10062000000C0140FFFF0F0038060008000000200A
:0806300088170000C005000856
:0400000508000131BD
:00000001FF
